{"abi":[{"type":"function","name":"DEPOSIT_AMOUNT","inputs":[],"outputs":[{"name":"","type":"uint256","internalType":"uint256"}],"stateMutability":"view"},{"type":"function","name":"DEPOSIT_CONTRACT_ADDRESS","inputs":[],"outputs":[{"name":"","type":"address","internalType":"address"}],"stateMutability":"view"},{"type":"function","name":"batchStaking","inputs":[{"name":"pubkeys","type":"bytes[]","internalType":"bytes[]"},{"name":"withdrawal_credentials","type":"bytes[]","internalType":"bytes[]"},{"name":"signatures","type":"bytes[]","internalType":"bytes[]"},{"name":"deposit_data_roots","type":"bytes32[]","internalType":"bytes32[]"}],"outputs":[],"stateMutability":"payable"},{"type":"error","name":"AmountZero","inputs":[]},{"type":"error","name":"InvalidInput","inputs":[]}],"bytecode":{"object":"0x608060405234801561001057600080fd5b5061061f806100206000396000f3fe6080604052600436106100345760003560e01c80633a02809114610039578063a524679e1461004e578063ec6925a71461008f575b600080fd5b61004c6100473660046103df565b6100ba565b005b34801561005a57600080fd5b506100726f219ab540356cbb839cbe05303d7705fa81565b6040516001600160a01b0390911681526020015b60405180910390f35b34801561009b57600080fd5b506100ac6801bc16d674ec80000081565b604051908152602001610086565b868581146100db5760405163b4fa3fb360e01b815260040160405180910390fd5b8084146100fb5760405163b4fa3fb360e01b815260040160405180910390fd5b80821461011b5760405163b4fa3fb360e01b815260040160405180910390fd5b8060000361013c576040516365e52d5160e11b815260040160405180910390fd5b61014f816801bc16d674ec8000006104b9565b34101561019b5760405162461bcd60e51b8152602060048201526015602482015274125b9d985b1a5908115d1a195c8811195c1bdcda5d605a1b60448201526064015b60405180910390fd5b6000805b828110156102bf576f219ab540356cbb839cbe05303d7705fa63228951186801bc16d674ec8000008d8d858181106101d9576101d96104d6565b90506020028101906101eb91906104ec565b8d8d878181106101fd576101fd6104d6565b905060200281019061020f91906104ec565b8d8d89818110610221576102216104d6565b905060200281019061023391906104ec565b8d8d8b818110610245576102456104d6565b905060200201356040518963ffffffff1660e01b815260040161026e979695949392919061055c565b6000604051808303818588803b15801561028757600080fd5b505af115801561029b573d6000803e3d6000fd5b50505050506801bc16d674ec800000826102b591906105ad565b915060010161019f565b506102d3826801bc16d674ec8000006104b9565b81146102e1576102e16105c0565b60006102ed82346105d6565b9050801561038657604051600090339083908381818185875af1925050503d8060008114610337576040519150601f19603f3d011682016040523d82523d6000602084013e61033c565b606091505b50509050806103845760405162461bcd60e51b81526020600482015260146024820152732330b4b632b2103a379039b2b7321022ba3432b960611b6044820152606401610192565b505b5050505050505050505050565b60008083601f8401126103a557600080fd5b50813567ffffffffffffffff8111156103bd57600080fd5b6020830191508360208260051b85010111156103d857600080fd5b9250929050565b6000806000806000806000806080898b0312156103fb57600080fd5b883567ffffffffffffffff8082111561041357600080fd5b61041f8c838d01610393565b909a50985060208b013591508082111561043857600080fd5b6104448c838d01610393565b909850965060408b013591508082111561045d57600080fd5b6104698c838d01610393565b909650945060608b013591508082111561048257600080fd5b5061048f8b828c01610393565b999c989b5096995094979396929594505050565b634e487b7160e01b600052601160045260246000fd5b80820281158282048414176104d0576104d06104a3565b92915050565b634e487b7160e01b600052603260045260246000fd5b6000808335601e1984360301811261050357600080fd5b83018035915067ffffffffffffffff82111561051e57600080fd5b6020019150368190038213156103d857600080fd5b81835281816020850137506000828201602090810191909152601f909101601f19169091010190565b60808152600061057060808301898b610533565b828103602084015261058381888a610533565b90508281036040840152610598818688610533565b91505082606083015298975050505050505050565b808201808211156104d0576104d06104a3565b634e487b7160e01b600052600160045260246000fd5b818103818111156104d0576104d06104a356fea26469706673582212201124fa7b0d3fd76b81226d2cf324cc0a2213cb4970d1aaa9f484f9af36bd8b2364736f6c63430008160033","linkReferences":{}},"methodIdentifiers":{"DEPOSIT_AMOUNT()":"ec6925a7","DEPOSIT_CONTRACT_ADDRESS()":"a524679e","batchStaking(bytes[],bytes[],bytes[],bytes32[])":"3a028091"},"id":20}